S02B0000433A2F417576657472612F6672656572746F735F626C696E6B2F636D616B655F6763632F6275696CB1
S3150800000000040020692C00086D2C00086D2C0008DF
S315080000106D2C00086D2C00086D2C00086D2C00084E
S315080000206D2C00086D2C00086D2C0008A5330008FF
S315080000306D2C00086D2C000849330008574F00083E
S315080000406D2C00086D2C00086D2C00086D2C00081E
S315080000506D2C00086D2C00086D2C00086D2C00080E
S315080000606D2C00086D2C00086D2C00086D2C0008FE
S315080000706D2C00086D2C00086D2C00086D2C0008EE
S315080000806D2C00086D2C00086D2C00086D2C0008DE
S315080000906D2C00086D2C00086D2C00086D2C0008CE
S315080000A06D2C00086D2C00080D060008ED050008EB
S315080000B06D2C00086D2C00086D2C00086D2C0008AE
S315080000C06D2C00086D2C00086D2C00086D2C00089E
S315080000D06D2C00086D2C00086D2C00086D2C00088E
S315080000E06D2C00086D2C00086D2C00086D2C00087E
S315080000F06D2C00086D2C00086D2C00086D2C00086E
S315080001006D2C00086D2C00086D2C00086D2C00085D
S315080001106D2C00086D2C00086D2C00086D2C00084D
S315080001206D2C00086D2C00086D2C00086D2C00083D
S315080001306D2C00086D2C00086D2C00086D2C00082D
S315080001406D2C00086D2C00086D2C00086D2C00081D
S315080001506D2C00086D2C0008F35500086D2C00085E
S315080001606D2C00086D2C00086D2C00086D2C0008FD
S311080001706D2C00086D2C00086D2C000892
S3150800017C0348044B834202D0034B03B1184770471C
S3150800018C581900205819002000000000064B074992
S3150800019CC91A891048BF0131491003D0044B0BB159
S315080001AC01481847704700BF5819002058190020F5
S315080001BC0000000010B5064C237843B9FFF7D8FFAA
S315080001CC044B13B10448AFF300800123237010BD10
S315080001DC3418002000000000445F000808B5054BE1
S315080001EC1BB105490548AFF30080BDE80840FFF789
S315080001FCCDBF00BF0000000000040020445F0008CB
S3150800020CA3F5803A704700BF174B002B08BF134B5A
S3150800021C9D46FFF7F5FF00218B460F461348144AF7
S3150800022C121A02F0F8FE0E4B002B00D098470D4B15
S3150800023C002B00D098470020002104000D000D4823
S3150800024C002802D00C48AFF3008002F0DFFC200037
S3150800025C290002F06FFE02F0C1FC00BF0000080086
S3150800026C000000000000000000040020000400202C
S3150800027CE0180020000000000000000008B5034844
S3150800028C05F068F8BDE8084002F09DBE1C5F000842
S3150800029C014805F05FB800BF1C5F000840F6B13195
S315080002AC014802F0D9BC00BF58560008002307B510
S315080002BC0193084B1B68013304D040F221310648E0
S315080002CC02F0CAFC04F00FFF019B002BFCD003B014
S315080002DC5DF804FBE0180020AC5600080348044AF5
S315080002EC0449121A921002F0BCBC00BF7C0100082B
S315080002FC7C010008E018002008B5154B83F30A8822
S3150800030C00F030F8FFF7EAFF124B13498B4212D371
S3150800031C0020124B12498B4218D3FFF775FF186849
S3150800032C50F82240586840F82240013298688242B8
S3150800033CF5D30C33EAE70022F8E71C6844F82200E8
S3150800034C01325C68A242F8D30833E4E70022F8E7E6
S3150800035C000000204C5F0008585F0008585F000832
S3150800036C585F00084FF48041124B134A70B59A60D7
S3150800037CD3F88820114D42F47002C3F88820104A2D
S3150800038C05F5005491664FF0FF3222660D4A6266F7
S3150800039C0222C3F8D020BFF34F8FBFF36F8F4FF4F1
S315080003AC4036002001F04CFF0020E66001F016FFF5
S315080003BC2E6170BD00ED00E00000000800800044CE
S315080003CC009000507FFF7F03014B1860704700BFF9
S315080003DCE8180020054B1860054B1B6F03F0070344
S315080003EC032B01D104F048BA704700BFF01800205F
S315080003FC0080005070B5044601260C4D04B970BD3A
S3150800040C94FAA4F0B0FA80F006FA00F224EA020490
S3150800041CC200AA580F2805EBC001C8BF1038002A1D
S3150800042CECD04968C0B29047E8E700BFAC0F002093
S3150800043C08B50C4804F08EFF1A2001F0E9FE28B125
S3150800044C1A2001F0FDFE1A2001F0C8FE1B2001F04F
S3150800045CDFFE28B11B2001F0F3FE1B2001F0BEFEC7
S3150800046C002008BD1C5F0008F8B50D461646044664
S3150800047C28B91748892102F0EFFB2220F8BD0F296D
S3150800048C03D98C21124802F0E7FB2378DBB1013B38
S3150800049CDBB2022B1AD80F4A32F813306278D340E3
S315080004ACDB0703D48D210A4802F0D6FB04F041FF82
S315080004BC074632462946204601F05AFC384604F0CF
S315080004CC33FF0020DAE740F2FF73E7E70023E5E79E
S315080004DC0B580008C45E000810B5044628B9104825
S315080004ECCF2102F0B9FB222010BD03789BB1013B4A
S315080004FCDBB2022B12D80B4A32F813306278D3408F
S3150800050CDB0703D4D221064802F0A6FB204604F0EA
S3150800051C59FA0020E8E740F2FF73EFE70023EDE70E
S3150800052C0B580008C45E000810B5044628B91048D4
S3150800053CDF2102F091FB222010BD03789BB1013B11
S3150800054CDBB2022B12D80B4A32F813306278D3403E
S3150800055CDB0703D4E221064802F07EFB204601F0B5
S3150800056C9FFB0020E8E740F2FF73EFE70023EDE777
S3150800057C0B580008C45E000870B50D46044600B159
S3150800058C31B915484FF4817102F066FB222070BD13
S3150800059C0378DBB1013BDBB2022B1AD80F4A32F8CF
S315080005AC13306278D340DB0704D440F205110A48AD
S315080005BC02F052FB04F0BDFE0646204601F09EFBF7
S315080005CC2870304604F0B0FE0020E0E740F2FF73D6
S315080005DCE7E70023E5E700BF0B580008C45E0008F0
S315080005EC08B501F0BBFB054B00F0553020F0A040D8
S315080005FCC3F82004BDE80840FFF7FCBE00E0035032
S3150800060C08B501F0ABFB054B00F0AA3020F02040F2
S3150800061CC3F82004BDE80840FFF7ECBE00E0035021
S3150800062C13B504460A4804F095FEA2780421B2FADA
S3150800063C82F2237852098DF8043063780DEB0100A9
S3150800064C8DF80530FFF710FF002002B010BD00BF73
S3150800065C1C5F0008044BD3F88420D206FBD4D3F8CD
S3150800066C8400C0F3811070470040005038B5104B19
S3150800067C0546D3F800310C4603F00303022B0BD0C6
S3150800068C032B0DD0012B0FD104F010F9032305B160
S3150800069C286004B1236038BD04F066F90923F6E72F
S315080006AC04F00AF90823F2E701230020EFE700BF5C
S315080006BC0080005038B5104B0546D3F840310C462F
S315080006CC03F00303022B0BD0032B0DD0012B0FD1F8
S315080006DC04F035FE0A2305B1286004B1236038BD41
S315080006EC04F042F90923F6E704F02CFE0B23F2E793
S315080006FC01230020EFE700BF0080005038B5104BEF
S3150800070C0546D3F860310C4603F00303022B0BD0D5
S3150800071C032B0DD0012B0FD104F011FE0A2305B1C2
S3150800072C286004B1236038BD04F01EF90923F6E7E6
S3150800073C04F008FE0B23F2E701230020EFE700BFC5
S3150800074C0080005038B5104B0546D3F840320C469D
S3150800075C03F00303022B0BD0032B0DD0012B0FD167
S3150800076C04F0EDFD0A2305B1286004B1236038BDF9
S3150800077C04F0FAF80923F6E704F0E4FD0B23F2E794
S3150800078C01230020EFE700BF0080005038B5124B5C
S3150800079C0546D3F880300C4603F00303022B0BD026
S315080007AC032B0DD0012B0FD104F046F80D2305B100
S315080007BC286004B1236038BD04F082F80723F6E7F5
S315080007CC04F034F80623F2E7044841F2013102F04A
S315080007DC43FA00231846EAE7008000506E580008D2
S315080007EC38B51A4B0546D3F820010C4600F007001D
S315080007FC062821D8DFE800F028040C1410181C0071
S3150800080C04F014F8052305B1286004B1236038BD3B
S3150800081C04F04CF80323F6E704F052F80723F2E742
S3150800082C04F040F80223EEE704F000F80623EAE7A2
S3150800083C04F03CF80423E6E7054841F27E3102F061
S3150800084C0BFA00231846DEE70123DCE7008000508C
S3150800085C6E58000838B5194B0546D3F828310C469E
S3150800086C03F00703013B052B20D8DFE803F003133D
S3150800087C1B0F0B1703F0DAFF052305B1286004B12B
S3150800088C236038BD03F0D2FF0623F6E704F018F808
S3150800089C0723F2E704F00AF80323EEE704F006F858
S315080008AC0423EAE703F0FEFF0223E6E7044841F2D5
S315080008BC781102F0D1F900231846DEE700800050C3
S315080008CC6E580008002337B50193194B0546D3F823
S315080008DC20320C4603F00703042B1FD8DFE803F07D
S315080008EC25030F141900002101A8FFF7B3FF1123E4
S315080008FC0DB1019A2A6004B1236003B030BD03F030
S3150800090CDFFF07230190F3E704F019FD0A23019092
S3150800091CEEE704F029F809230190E9E741F23511CD
S3150800092C044802F099F90023E2E70123E0E700BF47
S3150800093C008000506E580008F7B50027144B019735
S3150800094CD3F88041064604F00304022C0D4614D055
S3150800095C032C0DD0012C14D1394601A8FFF740FF02
S3150800096C0F240EB1019B336005B12C6003B0F0BDAA
S3150800097C03F0A6FF07240190F3E703F093FF019019
S3150800098CEFE741F2E341034802F066F93C46E8E733
S3150800099C008000506E58000838B5164B0546D3F83B
S315080009AC00020C4600F00700042819D8DFE800F00E
S315080009BC20030B0F130004F0C2FC0A2305B12860B0
S315080009CC04B1236038BD03F0CFFF0923F6E704F022
S315080009DCB9FC0B23F2E703F04FFF0E23800AEDE771
S315080009EC054841F2A15102F037F900231846E5E70C
S315080009FC0123E3E7008000506E58000838B5164B03
S31508000A0C0546D3F808020C4600F00700042819D846
S31508000A1CDFE800F020030B0F130004F090FC0A2308
S31508000A2C05B1286004B1236038BD03F09DFF092386
S31508000A3CF6E704F087FC0B23F2E703F01DFF0E2301
S31508000A4C800AEDE7054841F2D95102F005F9002371
S31508000A5C1846E5E70123E3E7008000506E580008C6
S31508000A6C38B5124B0546D3F850320C4603F003033F
S31508000A7C022B17D0032B09D0012B0FD00C4841F2AF
S31508000A8CA81102F0E9F80023184602E004F05AFC13
S31508000A9C0B2305B1286004B1236038BD04F04FFC64
S31508000AAC0A23F6E703F060FF0923F2E700800050FB
S31508000ABC6E580008002337B50193184B0546D3F832
S31508000ACC60320C4603F00703013B032B1FD8DFE803
S31508000ADC03F0020E1914002101A8FFF781FE0F235B
S31508000AEC0DB1019A2A6004B1236003B030BD002110
S31508000AFC01A8FFF7DFFD1023F2E703F0E1FE072359
S31508000B0C0190EDE703F0CEFE02230190E8E741F2EF
S31508000B1CDC11034802F0A0F80023E1E7008000503E
S31508000B2C6E58000808B5334B98424FD027D8324B2D
S31508000B3C984245D017D8314B98423ED00AD838B18E
S31508000B4C2F4B984239D041F2B8412E4802F084F81E
S31508000B5C002034E02C4B98422FD02C4B9842F2D1E3
S31508000B6C2B4B586E2BE02B4B98422CD003F5371396
S31508000B7C03F5D8639842E6D1254B986F1FE0264BB0
S31508000B8C98422FD00CD8254B984223D0244B984208
S31508000B9C24D0244B9842D6D11D4BD3F884000EE0B2
S31508000BAC214B984222D003F5740303F5105398424F
S31508000BBCC9D1174BD3F8980001E0154B986D08BDB1
S31508000BCC134B186FFBE7124B586FF8E7104BD3F81B
S31508000BDC8000F4E70E4BD3F88800F0E70C4BD3F8FB
S31508000BEC8C00ECE70A4BD3F89000E8E7084BD3F8EF
S31508000BFC9400E4E780BA8C01405DC60080841E0030
S31508000C0C40420F006E58000800093D00C0CF6A002C
S31508000C1C0080E00F0024F400007E560380D54302C2
S31508000C2C006CDC020048E8010090D003F8B50546D4
S31508000C3C0F46144604F074FB064625B94FF49C710E
S31508000C4C064802F009F82B6830465C403C405C408C
S31508000C5C2C60BDE8F84004F05EBB00BFCA5800081B
S31508000C6CB0F5207F10B52DD009D8B0F5007F23D06C
S31508000C7C03D868B1B0F5C07F0AD000241AE0B0F5E5
S31508000C8C607FFAD1124BD3F88040C4F3011411E0FB
S31508000C9C0F4B1B6F13F4604FC3F303340AD0072CA6
S31508000CAC08D00F2C06D0032C04D04FF42771094812
S31508000CBC01F0D2FF601C10BD054BD3F89040C4F36D
S31508000CCC0464F7E7024B1C6FC4F38024F2E700BFF9
S31508000CDC008000506E5800084FF4803238B5104B1F
S31508000CEC04469A6600200D46FFF7BAFF41F67132A4
S31508000CFC0C4B6043DC69DA635A6804F4803422F4DA
S31508000D0C40125DB90849884294BF002001200005AD
S31508000D1C02435A600CB10022DA6338BD0349F2E784
S31508000D2C0090005000000350005A6202002D310159
S31508000D3C1FB50024B0F5807FCDE9004400F016817C
S31508000D4C6AD8002800F0E9802038602879D860280D
S31508000D5C77D8DFE810F0E200F000E200F0000101BD
S31508000D6C0101010101010101F0009500F6001C01C9
S31508000D7C2101F600F000F000F0007600760076000F
S31508000D8C76007600760076001C01F000F000F00084
S31508000D9C5001A100F0007600760076007600760009
S31508000DAC76007600760076007600760076002B01C3
S31508000DBC0101E200E200E2002601F600F60030012D
S31508000DCCC0000601D700D7007600760076007600BC
S31508000DDCE2007600760076007600760076007600DD
S31508000DEC7600760076007600760076007600760039
S31508000DFC7600760076007600760076007600760029
S31508000E0C7600760076007600760076007600760018
S31508000E1C760076007600DC00B0F5F06F00F0EB801B
S31508000E2C3FD8B0F5806F00F097801ED8B0F5207FBC
S31508000E3C00F081800BD8B0F5C07F6ED0B0F5007F7E
S31508000E4C6ED040F2F7416E4801F006FF62E0B0F54D
S31508000E5C407F76D0B0F5607FF3D101A80021FFF76B
S31508000E6C95FC4FF46070019C5FE0B0F5C06F00F024
S31508000E7C8E800AD8B0F5A06F73D0B0F5B06FE0D1FC
S31508000E8C00216846FFF758FD44E0B0F5D06F00F036
S31508000E9C8380B0F5E06FD4D100216846FFF752FC89
S31508000EAC38E0B0F5206F00F086800DD8B0F5106FDD
S31508000EBC77D0B0F5186F79D0B0F5086FC1D1214647
S31508000ECC6846FFF7D3FB25E0B0F5306F7DD013D815
S31508000EDCB0F5286FB5D100214A4B0391D3F870327F
S31508000EEC03F00303012B6BD0022B6CD041F23A2191
S31508000EFC434801F0B1FE66E0B0F5386F47D0B0F55F
S31508000F0C406F9ED100216846FFF7A4FC02E003F06F
S31508000F1C93FC0090009804B010BD03F0ADFCF8E704
S31508000F2C03F08AFC04464FF40070FFF799FEB4FBF5
S31508000F3CF0F40094EEE703F09FFC04464FF420709F
S31508000F4CF3E703F099FC04464FF42070FFF788FE8C
S31508000F5CB4FBF0F46408ECE700216846FFF740FCA4
S31508000F6CD8E700216846FFF7ADFCD3E74FF0E0233E
S31508000F7C02941B695B0705D503F07EFC0290029B65
S31508000F8C0093C7E703A902A8FFF794FBF7E700212C
S31508000F9C6846FFF78FFBBDE700216846FFF7FCFCA8
S31508000FACB8E700216846FFF729FDB3E70021684634
S31508000FBCFFF756FDAEE700216846FFF77BFDA9E76C
S31508000FCC03A8FFF777FB039BDAE70E4BD3F89032AF
S31508000FDC03F00303012B04D0022B05D103F070FC9C
S31508000FEC97E703F05FFC94E7054841F2642101F0AA
S31508000FFC33FE20468DE700216846FFF77FFB89E71D
S3150800100C6E5800080080005008B58020FFF790FE47
S3150800101C034B98429EBF4FF48032024B1A6708BDA9
S3150800102C005A620200A000501FB50024B0F5607F7C
S3150800103C019400F0FB807AD8582867D8382805D848
S3150800104C2438092848D940F2F151D0E039381F28FC
S3150800105CF9D801A353F820F01B1200085310000806
S3150800106C5310000853100008251200084D120008EA
S3150800107C53100008531000085310000853100008AA
S3150800108C531000085310000853100008531000089A
S3150800109C531000085310000853100008531000088A
S315080010AC53100008571200085F1100085310000867
S315080010BC5310000853100008A31100085310000819
S315080010CC53100008611200086B120008431200083E
S315080010DCC5110008C51100080928B4D801A353F88E
S315080010EC20F000BF5F1100085F1100085F110008AF
S315080010FC5F1100085F11000853100008031200085E
S3150800110C531000081B1200087D110008802858D0BF
S3150800111CB0F5807F97D14FF0E02302941B695B07EB
S3150800112C70D503F0A9FB0C230393039B55E0B0F58C
S3150800113C086F76D021D8B0F5C06F68D00ED8B0F548
S3150800114CA06F78D0B0F5B06F55D0B0F5806F7FF43E
S3150800115C7AAF002001A9FFF743FB50E0B0F5E06F2A
S3150800116C6ED0B0F5F06F57D0B0F5D06F7FF46BAF8B
S3150800117C002001A9FFF710FC41E0B0F5286F6ED0EE
S3150800118C0ED8B0F5186F60D0B0F5206F62D0B0F5F8
S3150800119C106F7FF458AF002001A9FFF72FFC2EE043
S315080011ACB0F5306F73D0FFF44EAFB0F5386F2ED064
S315080011BCB0F5406F7FF447AF002001A9FFF74AFB53
S315080011CC1DE03F4B1B6F03F00703013B032B0CD8A9
S315080011DCDFE803F009020507052301930FE0032353
S315080011ECFBE70823F9E70223F7E740F229513548CC
S315080011FC01F032FD03E0002001A9FFF79DFB0198E1
S3150800120C04B010BD03A902A8FFF754FA8DE7002015
S3150800121C01A9FFF74FFAF2E7002001A9FFF76EFACA
S3150800122CEDE7204601A9FFF721FAE8E7204601A9D0
S3150800123CFFF7ACFAE3E7002001A9FFF743FBDEE76B
S3150800124C002001A9FFF77EFAD9E7002001A9FFF7CC
S3150800125C07FCD4E7002001A9FFF72CFCCFE7184BB5
S3150800126CD3F8703203F00303012B08D0022B0CD0F1
S3150800127C41F23A21134801F0EFFC0023ADE70021B7
S3150800128C03A8FFF717FA1023A7E71423A5E70C4BB7
S3150800129CD3F8903203F00303012B06D0022B08D1A6
S315080012AC03F00EFB07240194A9E703F0FBFA0224CA
S315080012BCF9E741F26421034801F0CEFCF3E700BFDD
S315080012CC008000506E5800084FF48032074B0849CE
S315080012DC586E03F580535A664B6A23F001034B622A
S315080012ECC3035CBF034B5A66704700BF00800050AF
S315080012FC00C0075000A00050F8B5036804460F2B31
S3150800130C04D940F65741814801F0A6FC63680F2BB7
S3150800131C04D940F65A417D4801F09EFCA3680F2B70
S3150800132C04D940F65D41794801F096FC237B0F2BD6
S3150800133C04D94FF44661754801F08EFC637B0F2B7C
S3150800134C04D940F66341714801F086FCA37B3F2B18
S3150800135C04D940F666416D4801F07EFCE37B3F2BD1
S3150800136C04D940F66941694801F076FC2369032BD8
S3150800137C04D940F66C41654801F06EFC6369032B91
S3150800138C04D940F66F41614801F066FCE369032B0A
S3150800139C04D940F672415D4801F05EFC8020FFF7E7
S315080013AC43FE032800F091804FF48012584B594D98
S315080013BC5A6645F60E034FF0A062C5F88030564BB8
S315080013CC9A624FF4803203F580539A62AB6DDA0356
S315080013DCFCD4AE6D16F08046FBD1D4E900231B0570
S315080013EC43EA0263E27B4D481343227B4C4F43EAA4
S315080013FC0243627B43EA0233A27B43EA82132B61E4
S3150800140CAA69D4E904131B0643EA816302F0004275
S3150800141C1343A27E4FF440611343227E43EA0243F0
S3150800142C627E43EA0223AB614FF40062FFF7FEFBD0
S3150800143C2B6AE269E17E23F00F03002A43EA0203D2
S3150800144C43EA810314BF0121002143EAC1032B623D
S3150800145C3CD194F8243094F82010AA6ADB0043EAAD
S3150800146C41133A40134394F821202E4943EA0213B8
S3150800147C43F48033274AAB62936D31EA0303FBD1FD
S3150800148C4FF08071244881621369A56823F47003B0
S3150800149C43EA055313614FF00043836194F82230F5
S315080014AC0BB9214B996294F823303BB94FF480322F
S315080014BC1D4B9A62174A936D5B00FCD494F8253041
S315080014CC1BB1144B194AC3F88020F8BD022A08D15F
S315080014DC2E614FF408524FF47F411548AE61FFF761
S315080014ECA5FB0C4994F822308A6A94F820001B064E
S315080014FC3A4043EA4013134394F8242043EAC203C0
S3150800150C94F8232043EA02438B62D7E76E58000807
S3150800151C009000500040005A0050005A3840005ABB
S3150800152CC7FFFEFE030001000060005AF1A7FFFF8B
S3150800153C3440005A014B93F90000704748190020B3
S3150800154C436810B5072B044604D940F6BF612A48F0
S3150800155C01F082FBA368032B04D940F6C161264827
S3150800156C01F07AFB2378032B04D940F6C361224891
S3150800157C01F072FB94F90130002B04DA40F6C561D0
S3150800158C1D4801F069FB4FF400011C4A637851664B
S3150800159C4FF4D151022002F5B832516218494F2B3B
S315080015AC48604FF0010028BF4F2301F58051486071
S315080015BC1169C903FCD4217843EA01235361D4E9A0
S315080015CC01131B0143EA0123617B0B43217B43EA8D
S315080015DC41039360E37BA17B1B0143EA4113617CC6
S315080015EC0B43217C43EA41035360A37C13B16FF48C
S315080015FCD153536210BD00BF6E58000800900050BE
S3150800160C00100250014B1880704700BF4619002085
S3150800161C014B1880704700BF44190020B0F5207F95
S3150800162C38B576D00ED8B0F5007F60D003D890B315
S3150800163CB0F5C07F2FD0BDE8384040F253313D4855
S3150800164C01F00ABBB0F5607FF5D13B4A4C1ED2F8C7
S3150800165CFC5015F080751EBFD2F8FC3023F0807351
S3150800166CC2F8FC30032C04D940F21E31314801F083
S3150800167CF3FA324AD2F8803023F0300343EA0413E3
S3150800168CC2F8803035B12C4AD2F8FC3043F080735E
S3150800169CC2F8FC3038BD102901F1FF3403D8284BA9
S315080016ACCB40DB0704D440F2EF21224801F0D4FAF0
S315080016BC01F031FB01F03DFB4FF48031214B1F4A01
S315080016CC1967136F23F4704343EA0433136703F063
S315080016DCD3F80446FEF7BEFFC0F10201204601F01E
S315080016EC22FB00F049F8BDE83840FFF78DBC4C1ECC
S315080016FC1F2C04D940F236310E4801F0ADFA0F4AC8
S3150800170CD2F8903023F0F85343EA0463C2F89030C9
S3150800171CC0E74C1E012C04D94FF44F71054801F053
S3150800172C9BFA064A136F23F4806343EA84231367F0
S3150800173CB0E700BF6E58000800ED00E000800050CE
S3150800174C160101000090005008B50121022000F096
S3150800175C77F94FF42070FFF783FA054B187001F0F0
S3150800176CDAFA01F0E6FA4FF48032024B1A6708BD32
S3150800177CD61800200090005008B54FF4C070FFF73B
S3150800178CD7FABDE808400449884294BF01210221D2
S3150800179C4FF42070FFF742BF80F0FA0238B50446C2
S315080017AC03F06AF80546FEF755FFC0F10201284614
S315080017BC01F0B9FA0121002000F096F92CB1FFF7D7
S315080017CCDBFFBDE83840FFF71FBC034B4FF4207016
S315080017DC1978FFF723FFF4E7D61800202DE9F04116
S315080017EC0546FFF79FF9431E0333044604D940F612
S315080017FCA621394801F030FA4FF4C022374B5A6605
S3150800180C03F598335A68012A04D135494A605A684F
S3150800181C9207FCD48020FFF707FC052807D101F0B6
S3150800182C7AFA01F086FA4FF480322C4B1A672D4B54
S3150800183C24F040749D423DD02B4B9D423DD002F086
S3150800184CF5FF8542064603D90121284600F04CF9D6
S3150800185C264FFB6813F0060FFBD1D7F80880BC603F
S3150800186CBB68634013F4F81F2AD12846FEF7ACFD73
S3150800187C8020FFF7D9FB052814D102F0FDFF85421D
S3150800188C044604D240F60231134801F0E5F9FEF796
S3150800189CE1FEC0F10201204601F045FAFFF76CFFA4
S315080018ACFFF7B2FBB54214D8BDE8F0410121002080
S315080018BC00F01AB944F00074C1E744F08074BEE72E
S315080018CC40F6F121044801F0C7F93546C7F80880F7
S315080018DCCEE7BDE8F08100BF6E58000800900050B6
S315080018EC00E0015040420F0080841E0000000150A9
S315080018FC38B53D4B0546984258D026D83B4B9842AE
S3150800190C64D015D868B13A4B984239D0394B9842BD
S3150800191C36D0394B984233D041F2CB21374801F0B7
S3150800192C9BF9002441F26501344801F095F92DE044
S3150800193C334B98424ED003F5371303F5D8639842C8
S3150800194CEAD1304BD3F8B8401DE02F4B984235D02E
S3150800195C0CD82E4B98422DD003F5742303F510732F
S3150800196C9842D9D1274BD3F8C4400CE0284B98425F
S3150800197C28D0284B9842CFD1224BD3F8D04002E03E
S3150800198C204BD3F8A040631E0333CBD84FF4002268
S3150800199C214B24F040745A66174B9D421ED0144BAB
S315080019AC9D421ED04FF0B4439C6038BD154BD3F8FE
S315080019BCBC40E8E7134BD3F8C040E4E7114BD3F827
S315080019CCC840E0E70F4BD3F8CC40DCE70D4BD3F817
S315080019DCA440D8E70B4BD3F8B040D4E744F00074D6
S315080019ECE0E744F08074DDE70024F400404B4C003B
S315080019FC80841E0000093D0040420F006E58000806
S31508001A0C809698000080E00F80BA8C01C0EA21010C
S31508001A1C0048E801005A620200900050024A536BD3
S31508001A2C0342FCD1704700BF00400950034A0179B4
S31508001A3CD36E23F030030B43D36670470040005037
S31508001A4CF8B50446244BD3F88420D006FBD4D3F837
S31508001A5C8430C3F381139C423CD002F0EDFE012C7A
S31508001A6C05460BD11D4B984204D940F2A6711C4869
S31508001A7C01F0F2F80121284601F055F903F050FC63
S31508001A8C4FF00072174B07465A66204601F056F976
S31508001A9C4FF48063104E621E93403367736E9A013F
S31508001AAC0AD5384603F037FC022C13D12846BDE874
S31508001ABCF840002101F037B9D6F884309B06F0D4EB
S31508001ACCD6F884309906E9D540F2BE71044801F07F
S31508001ADCC3F8E3E7F8BD00BF00400050005A6202A5
S31508001AEC265900080060005010B50C4608B902F0DB
S31508001AFCA3FE074B21461B783BB1064B984204D8EC
S31508001B0C0120BDE81040FFF79BBF0220F9E700BF94
S31508001B1CD7180020005A62024FF0004238B5244B01
S31508001B2C244C5A664AF6CD33656C014605F0010518
S31508001B3C236430BB0120FFF771FF6368DB0708D409
S31508001B4C002415B11B4B1C4A1A6401F0F8F8204600
S31508001B5C38BD1A4B58600846194B226BD20705D468
S31508001B6C984201D10724ECE70130F6E79842E7D111
S31508001B7CF8E70132236B13F0080305D08A42F8D133
S31508001B8CF0E700220E49F5E78A42EBD020210B4AF2
S31508001B9C91620121A2F5805251600649084A886A69
S31508001BAC800603D49342DDD00133F8E79342DEE78F
S31508001BBC00900050004009503254FFFF0060095055
S31508001BCC40420F004FF0004238B5164B01465A6694
S31508001BDC4AF6CD33144C154A656C236443780B20AE
S31508001BEC5B0043F00103D363FFF718FF63688A7839
S31508001BFC23F4F87343EA02136360CA784B7943EA11
S31508001C0C0223A3600A798B7943EA022323610878B5
S31508001C1CFFF782FFEB0744BF054B236401F08FF8EF
S31508001C2C012038BD0090005000400950004000507B
S31508001C3C3254FFFF0F2870B5044605D940F63B71A0
S31508001C4C124801F009F80F244FF00042104B1149C5
S31508001C5C5D6E03F580535A664AF6CD334E6C80207A
S31508001C6C0B64FFF7DBFE0B6A23F00F0323430B62AF
S31508001C7CF30744BF084B0B64002DA2BF4FF000427C
S31508001C8C064B5A6601F05BF870BD00BF2659000872
S31508001C9C00800050004009503254FFFF00A000504D
S31508001CAC10B5044620B940F2E621114800F0D4FFDD
S31508001CBC2378C3B1013BDBB2022B17D80D4A32F895
S31508001CCC13306278D340DB0704D440F2E721084886
S31508001CDC00F0C2FF0122637821789A4030235943D9
S31508001CEC054B5A5010BD40F2FF73EAE70023E8E7AC
S31508001CFC82590008CA5E000840E0035010B5044635
S31508001D0C20B940F20E31134800F0A6FF2378E3B150
S31508001D1C013BDBB2022B1BD80F4A32F81330627820
S31508001D2CD340DB0704D440F20F310A4800F094FF85
S31508001D3C30222378534303F1A04303F57033186C10
S31508001D4C6378D84000F0010010BD40F2FF73E6E757
S31508001D5C0023E4E782590008CA5E0008034BD3F84F
S31508001D6C2424D3F820041040704700BF00C0035049
S31508001D7C2DE9F0410E461746044618B98A21304813
S31508001D8C00F06AFF237813B3013BDBB2022B21D890
S31508001D9C2C4A32F813306278D340DB0703D48B21F4
S31508001DAC274800F059FF284BD3F810331BB18C2168
S31508001DBC234800F051FF0F2E0ED8DFE806F0383313
S31508001DCC333333333333333333333333333340F2FD
S31508001DDCFF73E0E70023DEE740F2CB11184800F06A
S31508001DEC3BFF4FF000082046F7B102F0EBFD30221E
S31508001DFC0F21207863785043072B88BF083B134D77
S31508001E0C95BF9B009B0004300C3008FA03F29940EE
S31508001E1C284400F095FF86B9204657B1BDE8F04135
S31508001E2C02F0D0BDB046DEE7FFF73AFFDFE7B04673
S31508001E3CDDE7BDE8F041FFF733BFBDE8F08100BF31
S31508001E4CE8590008CA5E000800C0035030C00350A9
S31508001E5C054B9A689107FCD45A689207F9D4DA6943
S31508001E6C002AF6D1704700BF00800A5010B5064C00
S31508001E7C6368DB0703D4A521044800F0EDFE02F0E5
S31508001E8CFDFD0223236110BD00800A504E5A00083E
S31508001E9C08B5FFF7DDFF0122024B03F580514A60B6
S31508001EAC1A6108BD00800A50044B10B55C68012CF9
S31508001EBC03D1FFF7DBFF024B5C6010BD00800A50B4
S31508001ECC00A00A5038B5074DFFF7C2FF6B680446E9
S31508001EDC012B03D1FFF7E8FFFFF7BAFF2378EB6076
S31508001EEC38BD00BF00800A5038B505460C4602F0CE
S31508001EFCCFFDBDB96268237812B1127843EAC203E2
S31508001F0C627843EA4203A26812B1127843EA821352
S31508001F1CE27843EA8203226912B1127843EA422331
S31508001F2C014A936438BD00BF00800A5030B58A4810
S31508001F3C8BB003F00FFA20B140F27931874800F0E4
S31508001F4C8BFE6C46864D0FCD0FC42B68854A2360D5
S31508001F5CFF238DF80130D2F84C3113F4802340F06E
S31508001F6CEF80D2F850218DF801309DF801306C467F
S31508001F7CFF2B08BF232368467B4D8DF80130FFF7EE
S31508001F8CDFFA3220FFF73EFB0FCD0FC40FCD0FC47F
S31508001F9C95E8030084E80300724BD3F84C2112032E
S31508001FAC00F1C880D3F85041E4B28DF81940FFF718
S31508001FBCC1FA044484F308046C488DF81840FEF7FB
S31508001FCC09FA6846FFF798F93220FFF721FB6848AB
S31508001FDCFFF704FC6748FFF78BFC674803F0BAF970
S31508001FEC20B14FF4EB715D4800F036FE634CFFF7F9
S31508001FFCABFB236F002023F0070343F0030323678F
S3150800200CFFF7CCFB236F5E4923F474432367D1F89F
S3150800201CFC2012F080721EBFD1F8FC3023F08073BE
S3150800202CC1F8FC300021D4F8803023F0030343F0C8
S3150800203C0103C4F88030534BC3F8801032B1504AB0
S3150800204CD2F8FC3043F08073C2F8FC304B4CD4F811
S3150800205C203123F0070343F00203C4F82031D4F8E7
S3150800206C283123F0070343F00203C4F82831D4F8C7
S3150800207C803123F0030343F00103C4F88031D4F80C
S3150800208C903223F0030343F00103C4F89032D4F8DA
S3150800209C403123F0030343F00203C4F84031D4F86B
S315080020AC603123F0030343F00203C4F86031D4F81B
S315080020BC403223F0030343F00203C4F84032D4F849
S315080020CC003223F0070343F00203C4F80032D4F8B5
S315080020DC083223F0070343F00203C4F80832D4F895
S315080020EC503223F0030343F00203C4F85032D4F8F9
S315080020FC703223F0030343F00103C4F87032D4F8AA
S3150800210C203223F0070343F00103C4F82032FFF70B
S3150800211CDBF84FF0E0220020136943F00403136147
S3150800212CD4F8603223F0070343F00103C4F8603295
S3150800213C0BB030BD144B1C88FF2C88BF642434E7C5
S3150800214C4FF07E6393F89C2093F99C30002BFFF696
S3150800215C0CAF8DF8012008E7145F0008A55B000892
S3150800216CD05E00080080E00FE45E0008C01753023A
S3150800217C00B4C404C0EA2101185F000800800050AE
S3150800218C00ED00E0009000500001E00F07B5094B88
S3150800219C186899889B7900906846ADF804108DF8F4
S315080021AC0630FFF70FFD0920FFF744FD002003B0AA
S315080021BC5DF804FB0C5F000813B50024064A684654
S315080021CC536F43F00103536700948DF80440FFF7EF
S315080021DC2DFC204602B010BD004000504F2810B50B
S315080021EC044608D801236109074A04F01F04A340D2
S315080021FC42F8213010BD4FF4A471044800F02CFDB0
S3150800220C002CF7DBEEE700BF00E100E0275C0008D6
S3150800221C4E2810B5044604D940F25311064800F06E
S3150800222C1BFD064B621153F8220004F01F04E04014
S3150800223CC04300F0010010BD275C000800E100E077
S3150800224C002808DB01224309034900F01F008240DD
S3150800225C603341F82320704700E100E038B500F1FF
S3150800226C10035F2B04460D4604D940F21F210E4875
S3150800227C00F0F2FC0F2D04D94FF408710A4800F04F
S3150800228CEBFC60B20028ACBF00F16040074B4FEA8C
S3150800229C0515EDB2ABBF00F5614000F00F0080F8F4
S315080022AC00531D5438BD00BF275C000814ED00E030
S315080022BC10B503F03EF80A4B1A786AB901226FF08A
S315080022CC04041A7003F030F8204605210134FFF790
S315080022DCC5FF4F2CF8D110BDBDE8104003F024B84B
S315080022ECD818002013B50B4C23788BB900F038F9A5
S315080022FC684600F02DF9DDE900010222064B00F0D4
S3150800230C63F90123054A137000B9237002B010BD96
S3150800231C1220FBE7D9180020AC1000204919002020
S3150800232C2DE9F04FB2F1FF3F06460D469146984609
S3150800233C87B00AD0531EB3F5007F01D21A4204D0D7
S3150800234C4FF44271794800F087FC26B940F20D31FA
S3150800235C764800F081FC4FF0000A754BB9F1FF3F47
S3150800236C83F800A0109B14BF4C460824CDF814A083
S3150800237C002B00F0D280C3F800A0002D00F0CF800F
S3150800238C7368AB4240F2CB8002F0D3FF073505AA3F
S3150800239C08F0010825F00705CDE900A207464A46CC
S315080023AC43462946304600F04BFDDDF8149083462B
S315080023BCB9F1000F00D030B9384602F0B5FF192034
S315080023CC07B0BDE8F08FB9F802A031694FEACA0226
S315080023DCC0EBCA0A0139BAF1270F31617DD9B8F1B8
S315080023EC000F54D1854205F1080A4BD022464946BE
S315080023FC304600F0BBFC04460590A244504600F05B
S3150800240C1BFD059905F10F004A88C308A2EBD002FB
S3150800241CAAF80220CA88AAF80430002A34D0D31A9B
S3150800242C9BB201EBC202AAF8063093808B88ED08A2
S3150800243CA380BAF804304A46E38051460023304656
S3150800244C658000F047FDB368F26808339342B360C1
S3150800245C88BFF360237843F0010323703369013393
S3150800246C33616288B368083403EBC203F268B3605D
S3150800247C934288BFF360109B38461C6002F054FFE9
S3150800248C00209DE74C46B8E7AAF80620CEE709EBEC
S3150800249C0A042046039200F0CFFC0BF10703DB0875
S315080024AC059963800AF10703DB08A380CB8893B1EF
S315080024BCDB00039AD81D821A5A44C2F3CF020B4486
S315080024CCE2809A80A3880AF1FF3A4FEADA0AA1F861
S315080024DC02A0CB80B7E7E380F4E7B8F1000F20D071
S315080024EC09F10805B5FBF4F304FB1355B5FA85F5A4
S315080024FC6D0985B922464946304600F037FC044634
S3150800250C23784A4643F001032370214601233046BB
S3150800251C00F0E0FCA5E74C46F2E7222050E7212024
S3150800252C4EE72B1A5D425D41E3E700BFAD5C000840
S3150800253C4919002007B5009313460A460146034875
S3150800254CFFF7EEFE03B05DF804FB00BFAC100020ED
S3150800255C024AD2E90021C0E900217047D4100020B4
S3150800256C0349044B044A5B1A11605360704700BF59
S3150800257C5819002000000420D410002038B503692F
S3150800258C0D461446DBB13AB981B9046824B940F250
S3150800259C3B110C4800F060FB20460378DB070FD58F
S315080025AC35B9C3885BB100EBC300F6E78469EDE780
S315080025BC012D04D1838813B1A0EBC300EDE70020ED
S315080025CC38BD00BF255D0008F8B50D4617461C46F4
S315080025DC064618B111B1082A00D823B94FF4C671AA
S315080025EC0F4800F039FB00233046C4E90065C4E9FE
S315080025FC023323616362C4E90566277700F01CFC85
S3150800260C2369013DED08013375802361A368E268EF
S3150800261C083393424FF00000A36088BFE360F8BD0F
S3150800262C255D000808B500F0EAFC034B1868BDE800
S3150800263C084002F0E2BC00BFDC10002000B58BB0ED
S3150800264C2022002102A800F0E6FC0B4B4FF4805226
S3150800265C019337230021CDE90623084801AA02F085
S3150800266C81FC074B186018B95221064800F0F4FA99
S3150800267C0BB05DF804FB00BFB25700083126000802
S3150800268CDC100020A55D000870B502F052FE144E51
S3150800269C05463478FCB9134B1C60134B1C60134B62
S315080026AC1C6000F02BF8012002F094FF02F0DAFB14
S315080026BC0F4B0246186020B9284602F035FE232037
S315080026CC70BD234640F2E7310A4800F0C7F80A4BBA
S315080026DC186001233370284602F026FE0020EFE727
S315080026ECDC180020E8100020E4100020F010002070
S315080026FCEC10002018FCFFFFE010002010B5002499
S3150800270C86B01422214601A88DF8004000F083FCFF
S3150800271C012313488DF8043002F01CFEBFF34F8FCB
S3150800272C6846FFF7CFFB204601A98DF80440FFF752
S3150800273CDBFB20460F2102F0CBF90F21204602F0D5
S3150800274CD5F9FFF7A5FB02F099F9064B46209C61D3
S3150800275CFFF776FD4620FFF741FD06B010BD00BF1A
S3150800276C145F000800800A50014800F087BA00BFC1
S3150800277C2C5F000838B50024074D0134042C06D10B
S3150800278C002328681A46194600F012FE00244FF456
S3150800279C7A7001F06FFCF0E74411002008B5064C7E
S315080027AC4FF0FF31206800F015FF0128F8D10348D7
S315080027BC00F067FAF4E700BF441100202C5F00080C
S315080027CC1FB50323002200931146194B012001F073
S315080027DC05F8184B186018B91E21174800F03CFA72
S315080027EC164BA0220293164B164901930123164841
S315080027FC0093002301F09CF918B927210E4800F024
S3150800280C2BFA124BA0220293114B12490193022365
S3150800281C11480093002301F08BF930B93021064892
S3150800282C05B05DF804EB00F017BA05B05DF804FBCB
S3150800283CF410002044110020835E0008A016002026
S3150800284C20140020A55E0008A9270008C81300203C
S3150800285C48110020B05E00088127000853B94AB910
S3150800286C002908BF00281CBF4FF0FF314FF0FF307E
S3150800287C00F0B2B9ADF1080C6DE904CE00F006F81B
S3150800288CDDF804E0DDE9022304B070472DE9F04FCA
S3150800289C8C46099E04460F46002B48D18A4215469B
S315080028AC5ED9B2FA82F33BB1C3F120029F409D4038
S315080028BC9C4020FA02F217434FEA154E1FFA85FC84
S315080028CC220CB7FBFEF10EFB117701FB0CF042EA6A
S315080028DC0742904207D9AA1801F1FF3702D2904253
S315080028EC00F258813946121AA4B2B2FBFEF00EFB5E
S315080028FC102200FB0CFC44EA0244A4450BD92C1903
S3150800290C00F1FF322CBF01270027A44502D9002F5E
S3150800291C00F04381104640EA0140A4EB0C04002168
S3150800292C1EB1DC400023C6E90043BDE8F08F8B429C
S3150800293C06D90EB1C6E9000100210846BDE8F08F9C
S3150800294CB3FA83F1002951D16345C0F0168182424E
S3150800295C40F213810846002EE7D0C6E90047E4E7A3
S3150800296C002A00F0AF80B2FA82F3002B40F0C28046
S3150800297C8A1A4FEA154EAFB20121200CB2FBFEFCA7
S3150800298C0EFB1C2240EA024207FB0CF090420ED9C1
S3150800299CAA180CF1FF382CBF4FF001094FF00009AB
S315080029AC904203D9B9F1000F00F0F080C446121A10
S315080029BCA4B2B2FBFEF00EFB102200FB07F744EAAA
S315080029CC0244A7420ED92C1900F1FF322CBF4FF046
S315080029DC010E4FF0000EA74203D9BEF1000F00F00E
S315080029ECD2801046E41B40EA0C4099E7C1F1200559
S315080029FC8B400CFA01F400FA01F922FA05F72CFAC5
S31508002A0C05FC8A401F4320FA05F3380C23431FFAAA
S31508002A1C87FE1C0CBCFBF0F800FB18CC44EA0C44F3
S31508002A2C08FB0EFCA4450ED93C1908F1FF3A2CBF3D
S31508002A3C4FF0010B4FF0000BA44503D9BBF1000F67
S31508002A4C00F0B880D046A4EB0C041FFA83FCB4FB48
S31508002A5CF0F300FB134403FB0EFE4CEA0444A645B4
S31508002A6C0ED93C1903F1FF302CBF4FF0010C4FF077
S31508002A7C000CA64503D9BCF1000F00F09F80034655
S31508002A8C43EA0840A4EB0E04A0FB02EC644573462B
S31508002A9CE04602D307D1F14505D2BEEB02036CEB37
S31508002AAC070C0138E0465EB1B9EB030264EB080487
S31508002ABC04FA05F522FA01F3CC401D43C6E9005485
S31508002ACC002132E742082F464B08AC4642EAC1724F
S31508002ADCAE46C407110C92B241EA034142EA0142DE
S31508002AECB1FBF5F1B3FBF5F01F23A2EB0C0241EA9F
S31508002AFC004142E79D40C3F1200299409C402CFAC4
S31508002B0C02FC4FEA154E20FA02F2AFB2BCFBFEF8F5
S31508002B1C0A430EFB18CC110C41EA0C4108FB07FCC6
S31508002B2C8C4550D9691808F1FF302CBF4FF00109B4
S31508002B3C4FF000098C4502D9B9F1000F30D0A1EB42
S31508002B4C0C01B1FBFEF808FB07FC0EFB181192B240
S31508002B5C42EA0142624534D2AA1808F1FF312CBF69
S31508002B6C4FF001094FF000096245BED2B9F1000FCA
S31508002B7CBBD1A8F102012A44B7E7841A6CEB03020D
S31508002B8C01201746E7E62C4402382BE7ACF1020C79
S31508002B9C2A440CE702392A44A5E62C440238BAE63C
S31508002BACA5EB0C0CA8F102006144B1FBFEF808FB7E
S31508002BBC07FCCAE7A8F102083C4444E7023B3C443C
S31508002BCC5EE7414691E7A1EB0C014046B1FBFEF8E6
S31508002BDC08FB07FCB9E700BF704700BF08B5064BF2
S31508002BEC044613B10021AFF30080044B1B6803B1F4
S31508002BFC9847204600F031F80000000030180020F5
S31508002C0C014B1868704700BFF418002070B50D4BBF
S31508002C1C00260D4D5B1B9C10A64209D10B4D02F0EC
S31508002C2C09FD0B4B00265B1B9C10A64205D170BDFB
S31508002C3C55F8043B01369847EEE755F8043B013640
S31508002C4C9847F2E750190020501900205019002017
S31508002C5C541900200F207047FEE7FEE7FDF74CBB22
S31508002C6CFEE700239A4200D1704710B550F823406E
S31508002C7C41F8234001339A42F8D110BDD0E900033C
S31508002C8C184703690068184707B503788DF80430A8
S31508002C9C43788DF80530837801A823B9FDF744FCF1
S31508002CAC03B05DF804FBFDF717FCF9E707B50378E5
S31508002CBC8DF8043043788DF80530837801A823B94C
S31508002CCCFDF70AFC03B05DF804FBFDF72DFCF9E7EC
S31508002CDC07B503788DF80430437801A88DF80530CC
S31508002CEC01F048FE03B05DF804FB13B504460378FF
S31508002CFC0DF103018DF80430437801A88DF80530E1
S31508002D0CFDF73AFCA3789DF80300002B08BF80F06A
S31508002D1C010002B010BD08B501F0C0FDBDE80840C1
S31508002D2C0021FDF7D9BF0029CCBF01210021FDF7F1
S31508002D3CD3BF02214FF42070FEF770BC7047704762
S31508002D4C70B5054614460E4602F0EAFA2B685C4046
S31508002D5C34405C402C60BDE8704002F0DCBA704729
S31508002D6C00F000B800207047FFF7E0B8F8B50C463D
S31508002D7C8D18073552421540A5F108070646384600
S31508002D8C00F05AF8A0883B1B618800EBE30080B280
S31508002D9CA1EBE30125F8040C25F8061CA188DA102A
S31508002DACD1B1A4EBC101B1F802C0C88002EB0C008A
S31508002DBC4880E188B9B18A1A92B204EBC10125F8A8
S31508002DCC022C8A80A2888AB9B2681344F268B36066
S31508002DDC934288BFF3600EE015F8081C41F0020117
S31508002DEC05F8081CE5E725F8021CEBE7A4EBC2047A
S31508002DFC2278D207E8D43846F8BD07B500224FF03A
S31508002E0CFF3101AB0192FFF795FB21280CD0222844
S31508002E1C05D019280CD0019803B05DF804FBFFF710
S31508002E2CEFFE8D230360F6E7FFF7EAFE1623F9E7B4
S31508002E3CFFF7E6FE0C23F5E70023036043607047B3
S31508002E4CF0B5D0E90554561C08BF0822002B4FF0E4
S31508002E5C000008BF2C46069F3860002C38D09DF819
S31508002E6C14606588F60006EBC505C2F1000C2078DF
S31508002E7CC00708D523BBE08898B104EBC004658865
S31508002E8C06EBC505F3E78D42F4D35BB904F10800EC
S31508002E9CB0FBF2FE02FB1E00C0B10844A842EAD8F9
S31508002EAC3C60F0BD082A11D06088013004EBC000E4
S31508002EBCA0EB010E0EEA0C0EA0EB0E008542EFD22B
S31508002ECCA0880028EDD0A4EBC004D8E70846E7E7AD
S31508002EDC2046E6E72DE9F041D0E905540746884631
S31508002EEC1646ABB1954200D00ABB4246002138467D
S31508002EFCFFF744FBB442054600D02EB942460121E1
S31508002F0C3846FFF73BFB0446C7E90554BDE8F08194
S31508002F1C954208D08D4228BF0D46B44205D044458B
S31508002F2C38BF4446F0E70D46F7E74446ECE79442CB
S31508002F3CEAD1E3E708B500F016F800F03EF8FEE72C
S31508002F4C704770477047704708B500F041F800F0B5
S31508002F5C4BF800F050F8FFF7F5FF00F04EF8BDE817
S31508002F6C084000F04BB808B5FFF7BCF9FFF7F7FEB9
S31508002F7CFFF7E6FFFFF79CF9FFF708F9FFF7F4FEF2
S31508002F8CFFF71AF9FFF780FBFFF7DBFF00F058F89D
S31508002F9C00F007F800F025F8BDE80840FFF74EBB2F
S31508002FAC704708B500F010F800F00FF800F00EF8AE
S31508002FBC00F00DF8FFF7F4FF08BD00F013B8002079
S31508002FCC7047FFF7FDBB70477047704770477047EF
S31508002FDC08B5FDF75DF9FFF7C3FEBDE80840FDF738
S31508002FEC4DB9704700F042B808B5FDF721FABDE8AF
S31508002FFC0840FFF7B9BBFFF72DBE7047704708B5F9
S3150800300CFFF7A2FFFFF7DDFFFFF7D9FF00B908BDF1
S3150800301CFFF799FFF8E702440346934200D170473D
S3150800302C03F8011BF9E70A44431E914200D1704785
S3150800303C10B511F8014B914203F8014FF9D110BDA7
S3150800304C08B501F06DFF48B901F034F901280346BB
S3150800305C07D1054A106820B9136008BD6FF0050042
S3150800306CFBE74FF0FF30F8E7C809002010B501F070
S3150800307C57FF044668B901F01DF901280CD1084B15
S3150800308C1A68012A08D102221A6000F035FE204679
S3150800309C10BD6FF00500FBE74FF0FF30F8E700BFF7
S315080030ACC8090020034B0360034B0B60A023136075
S315080030BC704700BF70090020F0060020034B036020
S315080030CC034B0B60A0231360704700BF98060020C3
S315080030DC1804002010B54FF0807440E90224184AF1
S315080030EC4FF0123440F80C2C4FF003324FF0023CE0
S315080030FC40E905244FF0013240F8203C40E9072C02
S3150800310C4FF010334FF011324FF0093440E90A32C0
S3150800311C4FF008334FF0073C40E90C344FF00633B8
S3150800312C4FF0053240E90E3C4FF0043340E91032BB
S3150800313C6FF0020340F8443C40F8481D10BD00BF30
S3150800314CB90200084FF0E0220423136100234FF460
S3150800315C7A719361044B1B68B3FBF1F3013B536122
S3150800316C07231361704700BFE41800204FF0E023D3
S3150800317C13B5D3F8084D374BE26A9A4204D04FF48C
S3150800318CC9613548FFF768FDA26B344B9A4204D0E7
S3150800319C40F249613048FFF75FFD00234FF07F424C
S315080031AC01934FF0E023C3F81C2DD3F81C3D2C4A91
S315080031BC1B0E8DF803309DF8033003F030031370A3
S315080031CC23B940F267612448FFF746FD9DF80330A2
S315080031DCDB4313F0300F04D040F26B611E48FFF747
S315080031EC3BFD9DF8033013F0800F019B29D1082B6A
S315080031FC0CBF0023019B1B4A18BFC3F107031B0214
S3150800320C03F4E06313604FF0E0230024D3F8202D79
S3150800321C42F47F02C3F8202DD3F8202D42F07F42CA
S3150800322CC3F8202DC3F81C4DFFF78CFF0E4B1C6002
S3150800323C00F074F800F0E8FFFDF738F8204602B005
S3150800324C10BD013301939DF803305B00DBB28DF89A
S3150800325C0330C6E7A5330008AC5600084933000806
S3150800326C35180020CC090020E018002008B501F01C
S3150800327C3AFF044A136801331360BFF34F8FBFF349
S3150800328C6F8F08BDE018002010B5094C236823B9C8
S3150800329C40F2D6310748FFF7DFFC2368013B236071
S315080032AC206818B9BDE8104001F028BF10BD00BF52
S315080032BCE0180020AC560008836913F8023C662B0C
S315080032CC0FD14FF0E023D3F8882D42F47002C3F8DF
S315080032DC882DD3F8342F42F04042C3F8342F00F02F
S315080032EC07B840F26A410148FFF7B6BCAC5600086D
S315080032FC094A1168086806C881F30B88022181F30C
S3150800330C1488203080F30988BFF36F8F4FF00000C4
S3150800331C80F31188104700001C0F0020064800682F
S3150800332C006880F3088862B661B6BFF34F8FBFF3A7
S3150800333C6F8F66DF00BF000008ED00E0EFF3098031
S3150800334C1EF0100F08BF20ED108AEFF30B827346A0
S3150800335C20E9FC0F0F4A116808604FF0300080F323
S3150800336C1188BFF34F8FBFF36F8F00F04DFF4FF0EF
S3150800337C000080F31188074A11680868B0E8FC0F4A
S3150800338C13F0100F08BFB0EC108A82F30B8880F389
S3150800339C098818471C0F00201EF0040F0CBFEFF30A
S315080033AC0880EFF30980014908470000C532000878
S315080033BC2DE9FF410E461D460446019220B940F2FE
S315080033CC73314248FFF748FC36B9236C23B14FF4E6
S315080033DC5D713E48FFF740FC022D07D1E36B012BCC
S315080033EC04D040F275313948FFF736FC00F062FF1D
S315080033FC30B9019B23B14FF45E713448FFF72CFCAE
S3150800340C0027B846FFF732FFA26BE36B9A4213D23A
S3150800341C2A463146204601F0D2FE636A1BB104F1F6
S3150800342C240000F08FFE08B101F040FEFFF72CFFD8
S3150800343C012004B0BDE8F081022DE9D0019B1BB92F
S3150800344CFFF722FF0020F4E717B902A801F028F8C5
S3150800345CFFF71AFF00F09CFCFFF708FF94F84430BE
S3150800346CFF2B08BF84F8448094F84530FF2B08BF1F
S3150800347C84F84580FFF708FF01A902A801F01CF89B
S3150800348CF0B9FFF7F3FEA26BE36B9A420FD1FFF785
S3150800349CFBFE019904F1100000F00CFE204601F029
S315080034AC4DFE00F043FD48B901F000FE06E0FFF7BB
S315080034BCEBFE204601F042FE00F038FD0127A1E79D
S315080034CC204601F03BFE00F031FDBBE71A57000819
S315080034DC2DE9FF410D460446019220B940F23A51B6
S315080034EC3B48FFF7B9FB35B9236C23B140F23E5183
S315080034FC3748FFF7B1FB00F0DDFE30B9019B23B16D
S3150800350C40F243513248FFF7A7FB0027B846FFF7AE
S3150800351CADFEA66BA6B12946204601F083FE2369AB
S3150800352C013EA66333B104F1100000F00BFE08B19E
S3150800353C01F0BCFDFFF7A8FE012004B0BDE8F08140
S3150800354C019B1BB9FFF7A0FE0020F6E717B902A8E6
S3150800355C00F0A6FFFFF798FE00F01AFCFFF786FEB0
S3150800356C94F84430FF2B08BF84F8448094F845300F
S3150800357CFF2B08BF84F84580FFF786FE01A902A831
S3150800358C00F09AFFC0B9204601F00EFE70B1019901
S3150800359C04F1240000F08EFD204601F0CFFD00F06A
S315080035ACC5FC08B901F082FD0127B0E7204601F0F9
S315080035BCC5FD00F0BBFCF7E7204601F0BFFD00F0A7
S315080035CCB5FC204601F0F0FD0028EDD0BCE700BFA5
S315080035DC1A570008F0B585B00446019120B94FF486
S315080035ECB7614748FFF738FB236C23B140F2BC514F
S315080035FC4348FFF731FB00F05DFE30B9019B23B160
S3150800360C40F2C1513E48FFF727FB00252E462F46B0
S3150800361CFFF72CFEA36BA3B1013BA363236813B975
S3150800362C00F034FFA060236933B104F1100000F0F8
S3150800363C89FD08B101F03AFDFFF726FE012005B019
S3150800364CF0BD019B1BB9FFF71FFE0020F7E716B963
S3150800365C02A800F025FFFFF717FE00F099FBFFF70D
S3150800366C05FE94F84430FF2B08BF84F8447094F890
S3150800367C4530FF2B08BF84F84570FFF705FE01A9F6
S3150800368C02A800F019FF10BB204601F08DFDC0B151
S3150800369C23683BB9FFF7EAFDA06800F01BFE054658
S315080036ACFFF7F2FD019904F1240000F003FD204612
S315080036BC01F044FD00F03AFC08B901F0F7FC0126CC
S315080036CCA6E7204601F03AFD00F030FCF7E7204665
S315080036DC01F034FD00F02AFC204601F065FD0028B7
S315080036ECEDD0002DB1D0FFF7C1FD616A19B1236B7E
S315080036FC1968C1F13801A06800F078FEA3E700BF8D
S3150800370C1A57000870B50D46044620B940F6322102
S3150800371C0E48FFF7A1FABDB100230D4A194610460B
S3150800372C5668A64204D100EBC103C3E900540BE06A
S3150800373C1BB91668002E08BF134601310A2902F177
S3150800374C0802EDD1002BF0D170BD00BF1A57000846
S3150800375CD009002070B50E46044640B1C56B65B954
S3150800376C1D4840F25B11FFF777FA002029E04FF469
S3150800377C99711948FFF770FAF2E7036CA3FB053544
S3150800378C002DEDD1FFF772FDD4E90F314B432268BA
S3150800379CA563D0185B1A62601A44FF23A06084F8EC
S315080037AC4430E26084F8453066B9236933B104F1D4
S315080037BC100000F0C7FC08B101F078FCFFF764FDB7
S315080037CC012070BD04F1100001F031FC04F1240055
S315080037DC01F02DFCF2E700BF1A570008F7B50746AB
S315080037EC0D4616461C466BB940F273111748FFF77F
S315080037FC33FA16484FF4CE71FFF72EFA002023E061
S3150800380C35B1F6E70028F4D0002EF9D0002DF0D00B
S3150800381C50230193019B502B04D04FF4C2710B48D3
S3150800382CFFF71AFA0121002D08BF26462046C4E9DF
S3150800383C0F7584F846102660019BFFF78BFF204610
S3150800384C9DF8203084F84C3003B0F0BD1A570008A8
S3150800385C00222DE9F84306461E4B1F4C1D681F4BCC
S3150800386C0F46D3F800801E4BD3F8009023682068C7
S3150800387C83F85620043001F00AFC731C14D19FB14E
S3150800388C184B21685A688A6090682168C860216854
S3150800389C04314160216804319160226853611A68C9
S315080038AC01321A60BDE8F88323682168AD195D609A
S315080038BC01F1040104D34846BDE8F84301F0C5BB41
S315080038CC404601F0C2FB084B1A68AA4288BF1D6025
S315080038DCE8E700BF440A00201C0F0020900A0020CD
S315080038EC8C0A00204C0A0020280A0020064A136875
S315080038FC1968064B19B94FF0FF321A6070471268EF
S3150800390CD2681268F9E700BF900A0020280A00203E
S3150800391C10B590F8553004463BB9006B01F001FC24
S3150800392C2046BDE8104001F0FCBB012BF9D0022B58
S3150800393C06D0BDE8104041F216710248FFF78CB963
S3150800394C10BD00BF64570008F8B50C4C0C4F0D4D54
S3150800395C236803B9F8BDFFF789FCFB68DE68301DE0
S3150800396C01F095FB2B68013B2B602368013B236018
S3150800397CFFF78AFC3046FFF7CBFFE9E7600A002021
S3150800398C640A0020480A00202DE9F0410446FFF796
S3150800399C6DFC304B304E1A68304F01321A60356860
S315080039AC002D4AD134601B68012B1FD1B8464046FE
S315080039BC013501F03CFB382D08F11408F7D1DFF876
S315080039CCC480274D404601F032FB284601F02FFBF8
S315080039DC244801F02CFB244801F029FB234801F06C
S315080039EC26FB234BC3F80080224B1D60224A201D60
S315080039FC136801331360214A23641168E36A8B4206
S31508003A0C88BF136014225343F9184A689568A26054
S31508003A1CE56068609060FA5861610132FA50FFF708
S31508003A2C33FC174B1B689BB13368DA6AE36A9A4214
S31508003A3C0ED2BDE8F04101F039BB114B1B68002BC7
S31508003A4CD4D13368DA6AE36A9A4298BF3460CDE710
S31508003A5CBDE8F081480A00201C0F0020BC0A002093
S31508003A6C940A0020780A0020640A00204C0A0020D8
S31508003A7C900A00208C0A00202C0A0020400A0020FC
S31508003A8C3C0A0020A80A002008B5044CFFF75CFF86
S31508003A9C2368012BFAD901F009FBF7E7BC0A0020C9
S31508003AAC2DE9F0470E46DDE9085A0A9C97003A4676
S31508003ABC8046A521206B9946FFF7ADFA236B043F88
S31508003ACC1F4427F007076EB1731E04F1330209363B
S31508003ADC13F8011F02F8011F09B1B342F8D10023EC
S31508003AEC84F83D30372D05D940F2FB610F48FFF7B6
S31508003AFCB3F83725E562A564201D01F0A3FAC5F1D4
S31508003B0C380504F1180001F09DFA4B464246384632
S31508003B1C216B2461A5616462FFF7DCFA2060BAF1B7
S31508003B2C000F01D0CAF80040BDE8F08764570008BA
S31508003B3C2DE9F0439846002387B00546DDE90F9436
S31508003B4C0E4617460493B9F1000F04D140F2BE4154
S31508003B5C1948FFF781F824B940F2BF411648FFF718
S31508003B6C7BF858230593059B582B04D040F2C74184
S31508003B7C1148FFF771F8059BD4B1B9F1000F17D0AE
S31508003B8C582200212046FFF746FA022384F85530BE
S31508003B9C04ABC4F8309001930E9B284600933A4622
S31508003BAC434631460294FFF77BFF2046FFF7ECFEAF
S31508003BBC049807B0BDE8F08364570008F8B50446C6
S31508003BCC204DFFF753FB04B92C68271D384601F026
S31508003BDC5EFAA36A1BB104F1180001F058FA1A4AE6
S31508003BEC1A4E1368013313602B683268E2B1A3428C
S31508003BFC1AD13946164801F03FFA164A13680133AA
S31508003C0C1360FFF741FB3368D3B12B68A34217D176
S31508003C1C114B1B6823B140F679011048FFF71CF8C5
S31508003C2CBDE8F84001F042BA0D4A1368013B13602F
S31508003C3CFFF75CFEFFF728FB2046FFF769FEE2E775
S31508003C4CF8BD00BF1C0F00202C0A00203C0A0020DF
S31508003C5C640A0020600A0020200A00206457000825
S31508003C6C480A00202DE9F041044620B940F60E1109
S31508003C7C1A48FEF7F1FF1A4B1B68A34226D0FFF72A
S31508003C8CF5FA184BD4F828801F68174B65691E6817
S31508003C9CFFF7FAFA154B98451AD0BD421AD0B54219
S31508003CAC18D0134B9D4209D1A36A9BB994F854308A
S31508003CBC012B0CBF02200320BDE8F0810D4B9D4261
S31508003CCC0AD0002D0CBF04200120F5E70020F3E7ED
S31508003CDC0120F1E70220EFE70420EDE7645700081E
S31508003CEC1C0F0020900A00208C0A0020780A00205D
S31508003CFC4C0A0020640A002030B51D4A8BB007AB6D
S31508003D0C12F8014B03F8014B002CF9D106AA05A9A8
S31508003D1C04A8CDE90444FFF7C5F9049B069A029357
S31508003D2C059B1448CDE9004307A92346FFF700FF76
S31508003D3C114B186080B100F047FD012805460FD1DC
S31508003D4C01F0D1F94FF0FF320C4B1A600C4B1D6089
S31508003D5C0C4B1C60FFF70AFA0B4B1B680BB030BDFB
S31508003D6C0135F9D140F66B510848FEF775FFF3E7B4
S31508003D7CAE570008953A0008240A0020280A0020A5
S31508003D8C3C0A0020440A0020C05E0008645700085C
S31508003D9C024A136801331360704700BF200A0020DB
S31508003DAC014B1868704700BF440A00202DE9F84FEC
S31508003DBC524B1B68002B40F09A80514B1C680134FF
S31508003DCC1C609CB94F4D2B681B6823B141F2D3017B
S31508003DDC4D48FEF741FF4D4B2A68196829601A6051
S31508003DEC4B4A136801331360FFF780FD494D0022D7
S31508003DFC2B684949A342DFF82CB109D81746DFF8D6
S31508003E0C28C1404B1B681B689BB94FF0FF332B60CE
S31508003E1C4248DBF8003004681420DB6A4343C85870
S31508003E2C012898BF002C14BF012000201043BDE8C0
S31508003E3CF88F344B1B68DB68DB685868844201D200
S31508003E4C2860E5E7D3F81480D3E90209C0F808908E
S31508003E5CC9F80400D8F8040003F1040E7045D8F824
S31508003E6C000008BFC8F8049001385F61C8F8000064
S31508003E7CD3F82880B8F1000F13D0D3E90709C0F896
S31508003E8C0890C9F80400D8F8040003F1180A50453C
S31508003E9CD8F8000008BFC8F8049001389F62C8F823
S31508003EAC00001426D86ADCF80080404506FB00F8AA
S31508003EBC01EB080ADAF8049088BFCCF80000D9F8A8
S31508003ECC0860C3F80890DE60C6F804E0C9F808E094
S31508003EDCC3F814A051F80830013341F80830DBF860
S31508003EEC0030DB6A984288BF42F0010289E70C4A27
S31508003EFC002013680133136099E700BF200A0020DD
S31508003F0C440A0020900A0020645700088C0A0020F6
S31508003F1C300A0020280A0020BC0A0020340A002097
S31508003F2C380A00201C0F0020400A00202DE9F84F03
S31508003F3C474CFFF79BF9236823B940F63D61454882
S31508003F4CFEF78AFE2368013B236023682BB1002405
S31508003F5CFFF79AF92046BDE8F88F3F4A1268002AFF
S31508003F6CF5D014264FF0010C3C483D4C3D4A3E4FCB
S31508003F7C3E4D51E0C368DB68D3F828E0D3E907184F
S31508003F8CC1F80880C8F80410DEF8041003F1180903
S31508003F9C49454FF0000108BFCEF804809962DEF857
S31508003FAC00100139CEF80010D3F814E0D3E9021842
S31508003FBCC1F80880C8F80410DEF8041003F10409E7
S31508003FCC4945DEF8001008BFCEF804800139CEF852
S31508003FDC0010D3F82CE0216806FB0EF802EB080A51
S31508003FEC8E45DAF8041088BFC4F800E0D1F808B09A
S31508003FFC9960C3F80CB0CBF80490C1F8089052F845
S3150800400C0810C3F814A0013142F808103968C96AB7
S3150800401C8E4501D9C5F800C001680029AAD10BB193
S3150800402CFFF764FC124D2C6844B101270F4EFFF7BD
S3150800403CBDFE00B13760013CF9D12C600B4B1B68F7
S3150800404C002B84D0084B01241B6801F02FF87FE75E
S3150800405C200A002064570008480A0020780A002025
S3150800406C400A0020BC0A00201C0F0020340A00203D
S3150800407C380A002010B5044618B9BDE8104001F0FE
S3150800408C15B8FFF785FE094B1B68012B04D040F6C3
S3150800409CE1010748FEF7E0FD00212046FFF7D8FBB3
S315080040ACFFF744FF0028E8D010BD00BF200A002007
S315080040BC6457000838B50D46044620B941F2B921B3
S315080040CC0748FEF7C9FD074B20461968183100F05A
S315080040DCBCFF2846BDE838400121FFF7B9BB00BF35
S315080040EC645700081C0F002070B50E46154604468A
S315080040FC20B941F2F7211148FEF7AEFD104B626864
S3150800410C19689068CA611968002D0862196801F166
S3150800411C1801416019681B6801F1180191609C62CD
S3150800412C2368294603F1010308BF3046236018BFEC
S3150800413C4FF0FF30BDE87040FFF78ABB64570008A4
S3150800414C1C0F0020F8B5C368DC6824B941F22C3181
S3150800415C2648FEF781FDD4E90712A36A8A605160E6
S3150800416C596804F11800814208BF5A600022A262FD
S3150800417C1A68013A1A601E4BE26A1B68002B29D191
S3150800418CD4E902016369816048605868251DA84214
S3150800419C08BF5960196801391960164B19688A42A3
S315080041AC88BF1A60142353431349CE18706887685E
S315080041BCA060E7607D608560C85866610130C850AC
S315080041CC0E4B1B68DB6A9A4285BF01200C4B0020FC
S315080041DC1860F8BD0B4B59688D68E16125626860FB
S315080041EC88601968A36201311960E9E76457000809
S315080041FC200A0020400A0020BC0A00201C0F0020C0
S3150800420C340A0020780A0020214B2DE9F0411A685F
S3150800421C204B1AB101221A60BDE8F0811E4C1A60B7
S3150800422C23681B6B1A68B2F1A53F0BD15A68B2F119
S3150800423CA53F07D19A68B2F1A53F03D1DB68B3F164
S3150800424CA53F04D0216820683431FCF727F84FF0D5
S3150800425C1408124F124E3D6808FB05F3F2589919CB
S3150800426C72B14A680833526833449A424A6008BFA6
S3150800427CCA68D36808BF4A6023603D602368CBE7E9
S3150800428C25B941F239210748FEF7E6FC013DE3E77B
S3150800429C200A0020340A00201C0F0020400A0020A7
S315080042ACBC0A0020645700080122014B1A607047AB
S315080042BC340A0020054B1B6833B1054B1868B0FA55
S315080042CC80F0400940007047012070473C0A0020E6
S315080042DC200A0020F8B5044600282ED01D4DC36AC6
S315080042EC2A68D26A93422DD282691B4E002AA1BF34
S315080042FC2A68D26AC2F138028261142202FB03636D
S3150800430C42699A421AD1071D384600F0C0FE2B683E
S3150800431C124ADB6A1168E3628B4288BF1360142267
S3150800432C5343F1184A689068A260E060476097604A
S3150800433CF25861610132F2500120F8BD2B68DB6A34
S3150800434CC362F9E72B68806CDB6A98422CBF0020A5
S3150800435C0120F2E71C0F0020BC0A0020400A0020AE
S3150800436C70B5044608B9002070BD1C4B1B68834207
S3150800437C04D041F2F2711A48FEF76EFCE36C23B9CD
S3150800438C41F2F3711648FEF767FCE36CE16AA26C1E
S3150800439C013B9142E364E6D0002BE4D1251D284667
S315080043AC00F075FEA36CC3F13802A2610D4AE362F4
S315080043BC11688B424FF0140188BF13604B430A4AAD
S315080043CCD01841688E68A160E66075608D60D1581A
S315080043DC606101310120D150C6E700BF1C0F0020D7
S315080043EC64570008400A0020BC0A002070B50D4628
S315080043FC0446002840D0C36C23B941F643011F4834
S3150800440CFEF72AFCA36C9D4238BF1D46E36AAB42F5
S3150800441C32D0E36C012B2FD1194B1B68A34204D164
S3150800442C41F659011548FEF717FCA269E36A002AFA
S3150800443C4FF01402E562A4BFC5F13805A561114D0C
S3150800444C02FB035362699A4216D1261D304600F0C8
S3150800445C1EFE0D4AE36A11688B4288BF136014224C
S3150800446C5343E9184A689068A260E0604660966013
S3150800447CEA5861610132EA5070BD00BF6457000802
S3150800448C1C0F0020BC0A0020400A0020034B1868A9
S3150800449C10B1C36C0133C364704700BF1C0F0020F6
S315080044AC034B1B680360034B1B684360704700BFD4
S315080044BC300A0020440A002070B50D46044620B97F
S315080044CC41F2D4311948FEF7C7FB25B941F2D5316B
S315080044DC1648FEF7C1FBFEF7C9FE154B1968154BB6
S315080044EC1A6892F8562042B100221B6883F85620A7
S315080044FC0124FEF7C9FE204670BD2B685A1C13D042
S3150800450C0D48266800686268864204D08A4202D83A
S3150800451C00232B60ECE7881A8342F9D95B1A1344FB
S3150800452C20462B60FFF7BCFF0024E2E7645700081F
S3150800453C440A00201C0F0020300A0020914208B5BE
S3150800454C416000610AD8D21A83699A420DD2084B87
S3150800455C011D186800F079FD002008BD9A4201D2A9
S3150800456C994202D2034B011DF3E70120F5E700BF80
S3150800457C7C0F0020800F00200E4B70B51B6805467B
S3150800458CDB680E46DC68201D00F081FD94F82830A7
S3150800459C5A0709D532462946204600F0A9FE204678
S315080045AC236ABDE87040184723F0010384F82830C5
S315080045BCF5E700BF800F002010B5084C23681A6871
S315080045CC22B9074A11681360216010BDDB684FF0E9
S315080045DCFF311868FFF7D0FFF0E700BF800F002007
S315080045EC7C0F0020F7B5114CFEF740FE2568BDB9C7
S315080045FC0F4F104E384600F01AFD304600F017FDE6
S3150800460C0D4B10211F600D4B0A201E600C4A0D4BDA
S3150800461C0095FFF7E3F8206010B10B49FFF772F825
S3150800462C03B0BDE8F040FEF72FBE00BF780F0020A0
S3150800463C980F0020840F0020800F00207C0F00208C
S3150800464C36180020240F0020B35700082DE9FF4127
S3150800465C584E594B1B681F680FB30025DB681F683B
S3150800466CFFF796FBFFF79CFB336804469842DFF886
S3150800467C548116D33060002D40D0504B1B681D68F2
S3150800468CB5FA85F56D092A46D8F80000391B00F0ED
S3150800469CDEFDFFF74BFC48B900F008FD06E00125E6
S315080046ACDEE7FFF789FF3460FFF740FC1022002194
S315080046BC6846FEF7B0FC00226946D8F80000FEF7FB
S315080046CC07FF0028C5D0009B0298002B1FDB029C15
S315080046DC63691BBBFFF764FB33680546984201D236
S315080046ECFFF76AFF009B3560013B082BE3D8DFE830
S315080046FC03F019193C435919193C43008742C2D88F
S3150800470CFFF714FC21463846FFF736FFCEE7019B28
S3150800471C03999847009B002BCDDBD8E7201D00F0AA
S3150800472CB6FCD7E794F82830A16943F0010384F85E
S3150800473C2830019B2A4620461944FFF7FFFE00281D
S3150800474CB9D094F8283059070AD5A36901992A468D
S3150800475C2046194400F0CCFD2046236A9847AAE760
S3150800476C23F0010384F82830F6E794F8283023F070
S3150800477C010384F828309EE794F8283043F00103A7
S3150800478C84F82830019BA36123B940F2C1310C4847
S3150800479CFEF762FAA1692B462A4620462944FFF7FA
S315080047ACCDFE88E794F828309A07E0D4204600F026
S315080047BCB8FC80E7200F0020800F00207C0F00201B
S315080047CCB8570008780F002010B588B0FFF70AFF15
S315080047DC114B1B68CBB1002407AA06A905A8CDE97D
S315080047EC0544FEF76BFC059B079A0293069B0B493F
S315080047FC019328230A4800932346FFF799F9094B96
S3150800480C186010B1012008B010BD074840F23B11E2
S3150800481CFEF722FA0020F6E7780F00200358000866
S3150800482C59460008740F0020B8570008014B186841
S3150800483C704700BFE81800200A4B1B6F03F00703EC
S3150800484C013B032B03D8DFE803F00A030608FEE74F
S3150800485C054B18687047054BFBE705487047054834
S3150800486C704700BF00800050E8180020F0180020A0
S3150800487C80D54302002D310108B5FFF7DDFF054B46
S3150800488C1B6FC3F303330133B0FBF3F0024B186011
S3150800489C08BD00BF00800050E4180020004870478F
S315080048AC00B4C40400487047002D3101014B186848
S315080048BC704700BFF01800200048704780D54302A7
S315080048CC4FF400221B4B5A664FF0B4429368C3F35D
S315080048DC04430C2B0AD8DFE803F00B070909270950
S315080048EC191B1D1F212325001348704700207047EC
S315080048FC936803F04073B3F1807F17D0B3F1007F50
S3150800490C16D0002B0D4818BF002070470C4870476E
S3150800491C0C4870470C4870470C4870470C48704751
S3150800492C0C4870470C4870470C4870470C48704741
S3150800493C0C48704700900050404B4C0000093D0055
S3150800494C405DC6000024F400C0EA2101002D3101A7
S3150800495C80BA8C010048E801005A620280969800D9
S3150800496C80841E0040420F00014B1868704700BF38
S3150800497CEC18002010B5044628B91048EF21FEF7AC
S3150800498C6BF9222010BD03789BB1013BDBB2022BDD
S3150800499C12D80B4A32F813306278D340DB0703D4AB
S315080049ACF2210648FEF758F9204600F039F800209F
S315080049BCE8E740F2FF73EFE70023EDE70B58000832
S315080049CCC45E000810B5044620B940F2BF21114850
S315080049DCFEF742F92378C3B1013BDBB2022B17D899
S315080049EC0D4A32F813306278D340DB0704D44FF4FF
S315080049FC30710848FEF730F90122637821789A401D
S31508004A0C30235943054B5A5010BD40F2FF73EAE761
S31508004A1C0023E8E782590008CA5E000840D0035014
S31508004A2C10B5044620B940F235311148FEF714F991
S31508004A3C2378C3B1013BDBB2022B17D80D4A32F8E7
S31508004A4C13306278D340DB0704D440F23631084879
S31508004A5CFEF702F90122637821789A4030235943EC
S31508004A6C054B5A5010BD40F2FF73EAE70023E8E7FE
S31508004A7C82590008CA5E000840F00350034B5A6876
S31508004A8CD20702D5DA69002AF9D1704700800A5094
S31508004A9C38B9064B5A68D20702D59A6D002AF9D14D
S31508004AAC70473D210248FEF7D7B800BF00800A5070
S31508004ABCB65A000810B9044B5964704740F23F6166
S31508004ACC0248FEF7C9B800BF00900A50B65A00084B
S31508004ADC10B9044B5964704740F275610248FEF7E9
S31508004AECBBB800BF00A00A50B65A000810B9044B50
S31508004AFC1964704740F2AB610248FEF7ADB800BFC7
S31508004B0C00A00A50B65A000808B510B9044B186C20
S31508004B1C08BD04484FF4DC61FEF79EF80020F7E761
S31508004B2C00800A50B65A000838B504460D46FFF7F9
S31508004B3CAFFF44B915B9064BD86C38BD012D04D155
S31508004B4C034B186DF9E70020F7E72046F5E700BF99
S31508004B5C00800A5070B506460D461446FFF798FFB6
S31508004B6C16B915B9034BDC6470BD012D04BF014B96
S31508004B7C1C65F9E700800A5070B50E46E8B1056861
S31508004B8C15F4E07FC5F3821312D0012B15D10C4C0A
S31508004B9CAB0603D591210B48FEF75EF856B104F522
S31508004BAC80540123002005F03F05AB40236070BDFF
S31508004BBC054CEDE704F50054F3E70E20F7E700BFC4
S31508004BCC68800050CA58000864800050034606489E
S31508004BDC02689A4203D841680A44934202D3406A4F
S31508004BEC0028F5D1704700BFAC1000200E4A30B52E
S31508004BFC1368416183B9106083600CE0491B9D689A
S31508004C0C1C4641612B461DB15D698D42F6D92CB106
S31508004C1CA060836023B930BD0024F5E7106083607B
S31508004C2C5A69521A5A61F6E7E81000200D490B68C2
S31508004C3CA0B10022A3B1834203D1836822B90B60C9
S31508004C4C03E01A469B68F5E7936083680BB9002066
S31508004C5C70475A6941690A445A61F8E72220704735
S31508004C6C02207047E810002010B500F0F3F80A4C43
S31508004C7C0A4B19682368C31A09B9206010BD002BA2
S31508004C8CFBD04A699A423ABF9B1A0022D21A4A6149
S31508004C9C28BF00238968EFE7E4100020E8100020FD
S31508004CAC38B5154D2B682BB35B69A3B1134A022093
S31508004CBC14681C4400F08EFC204600F0DFF8002334
S31508004CCC0F492A680B7022B1D08880070AD50123B0
S31508004CDC0B70002038BD022000F07CFC022000F08E
S31508004CEC17F9ECE79268002AF3D050690344012BB4
S31508004CFCEAD9EEE72220EDE7E8100020E4100020C0
S31508004D0CDB180020C2072DE9F843044607D54D4A9F
S31508004D1C136801331360FFF7A7FFFFF7C1FFA3075B
S31508004D2C40F18D8000F005FB4FF00008054646461D
S31508004D3CFFF79AFF444F3C680CB16369A3B1002294
S31508004D4C424B012E1A7003D118F0020F18BF1E70B1
S31508004D5CFFF7A6FF222802D1022000F0C7F8284642
S31508004D6CBDE8F84300F0E0BA23465A693AB91A790D
S31508004D7C2179914288BF1C469B68002BF5D12846A1
S31508004D8C00F0D2FA2569002D45D000F063F8A26927
S31508004D9CA0EB02084FEAE873A84573F100033BDB66
S31508004DAC23691344A3610123226932B32BBBB5EBE8
S31508004DBC08054FEAE87363EB4303012D73F100030F
S31508004DCC04DA40F27C612248FDF746FFA38B33B127
S31508004DDCE28B13449BB2B3F57A7F28D2E38300F0B7
S31508004DECA8FA804629462046FFF700FFA3692269E0
S31508004DFC40461344A36100F097FAE36813B12046C2
S31508004E0C21689847B4F8068000F093FA01360546EF
S31508004E1CFFF72AFF8FE7A84600F08BFA8146204653
S31508004E2CFFF704FF484600F07FFA0023BCE7A3F51A
S31508004E3C7A73E383A369013D013BA361CFE7BDE820
S31508004E4CF88300BFF0100020E8100020DA180020C4
S31508004E5C135E000808B5FFF711FE014B986908BDEB
S31508004E6C00800A5007B5044B01A9187900F06DFAB1
S31508004E7C019803B05DF804FB205F0008F8B50446FA
S31508004E8C00F04EFA0746FFF7F9FD154B9D6900F041
S31508004E9C9DFB06460020FFF737FE830704D4731BD9
S31508004EAC032B01D8AE420FD10021631B022B98BFEE
S31508004EBCEC1C0846B4F1FF3F2CBF2246621EFFF7D6
S31508004ECC49FE022000F086FB384600F024FA054B12
S31508004EDC1A7822B10121044A916400221A70F8BD8D
S31508004EEC00800A504A19002000900A50830700F0E7
S31508004EFC010106D50123044A41F002011370034A45
S31508004F0C93640020FFF7E4BD4A19002000A00A505C
S31508004F1C830742BF0222014B1A64704700900A505D
S31508004F2C10B5EFF3058414B10124204610BDFFF724
S31508004F3CC1F90128F9D0EFF31083002BF4D1EFF364
S31508004F4C1184003C18BF0124EFE708B54FF0E023A5
S31508004F5C1B69FFF7AFF9012803D0BDE8084000F03C
S31508004F6CB0B808BD0023F0B587B006460F46144600
S31508004F7C0593FFF7D5FF18BB16B364B3A56925B11E
S31508004F8C6B1E372B02D907B0F0BD18256368DB07F3
S31508004F9C31D46369B3B19A082168D4E902C0BCF16B
S31508004FAC000F11D057280BD9206948B143B1013DE0
S31508004FBCCDE9010C3B4630460095FEF7B9FD059048
S31508004FCC0598E0E7A022E7E70028F9D12369002B2A
S31508004FDCF6D10C4601E01825A02205AB013D01933C
S31508004FEC21463B463046009500F054F901281CBF73
S31508004FFC00230593E4E70020C5E738B50546FFF717
S3150800500C8FFF044650B965B12846FEF72BFE0428D7
S3150800501C0AD02846FEF7D2FD204638BD6FF00500AB
S3150800502CFBE76FF00300F8E76FF00200F5E74FF0C7
S3150800503CFF3200F10803C0E9022343600361002331
S3150800504C0360704700230361704730B50C68631C16
S3150800505C0AD103695A684A6091608B605960036883
S3150800506C08610133036030BD00F10802134652682B
S3150800507C1568A542FAD9EDE743689A684B608A60C9
S3150800508C51609960036808610133036070470369CE
S3150800509CD0E901128A6051605968814208BF5A608A
S315080050AC0022026118680138186070474FF0E02337
S315080050BC4FF08052C3F8042DBFF34F8FBFF36F8F99
S315080050CC704710B500F00FF80446FEF76FFE28B1CE
S315080050DC4FF0E0234FF08052C3F8042D2046BDE86C
S315080050EC104000F00BB8EFF311804FF0300181F34C
S315080050FC1188BFF34F8FBFF36F8F704780F31188FA
S3150800510CBFF34F8FBFF36F8F704710B50446FEF78A
S3150800511C3FFE2046FDF771FE0446FEF707FF2046C4
S3150800512C10BD10B5044640B1FEF732FE204600F01D
S3150800513C3DFABDE81040FEF7F9BE10BD70B5044641
S3150800514CFEF794F894F8455004F124066DB2002D38
S3150800515C01DD636AB3B9FF2384F84530FEF794F88A
S3150800516CFEF784F894F8445004F110066DB2002D3D
S3150800517C01DD23697BB9FF2384F84430BDE8704010
S3150800518CFEF782B83046FEF7DDFF08B1FFF78CF85C
S3150800519C013D6DB2DBE73046FEF7D4FF08B1FFF7E9
S315080051AC83F8013D6DB2E2E710B50446FEF75EF8EA
S315080051BCA46BFEF769F8B4FA84F0400910BD70B513
S315080051CC1646026C0446856B42B906689EB9806819
S315080051DCFFF7C6F8A6600135A56370BD6EB94068C1
S315080051ECFDF721FF6368226C1344A268636093423F
S315080051FC24BF236863600020EDE7C068FDF713FF42
S3150800520C226CE36851429B1A2268E36093423EBFC4
S3150800521CA3685B18E360022EEDD10DB1013DEAE7F8
S3150800522C2846D8E703461A6C084610B462B1DC68FF
S3150800523CA1189C68D960A14228BF19685DF8044B6F
S3150800524C28BFD960FDF7EFBE5DF8044B704770B503
S3150800525C04460D461646FEF709F894F84430FF2B1B
S3150800526C04BF002384F8443094F84530FF2B04BF60
S3150800527C002384F84530FEF707F8A36B2BB93246A2
S3150800528C294604F12400FEF72FFF2046BDE870409E
S3150800529CFFF754BF2DE9F043074685B090008846C2
S315080052AC16469946FFF731FF0546F0B15820FFF729
S315080052BC2CFF0446B0B158220021FDF7ACFE0D9B1D
S315080052CC256301930C9B324641463846009302945B
S315080052DC4B46FEF7E5FB2046FEF756FB012005B0CC
S315080052ECBDE8F0832846FFF71CFF4FF0FF30F6E7C2
S315080052FC70B504460D461646A1692B46324620461D
S3150800530C2944FFF71BF900B970BDA36920461D4453
S3150800531C236A9847F0E710B962B6BFF36F8F7047E8
S3150800532CEFF3108072B6704780F31188BFF36F8F56
S3150800533C7047EFF31180302383F3118870474FF4CD
S3150800534C004070474FF47A70704709B100F005B801
S3150800535C222070470121FFF70FBC70B506460D4693
S3150800536CFFF7E7FF04461F2E58D8DFE806F010199A
S3150800537C571E212457272A572D5730335736393C71
S3150800538C573F5742575457455748574B4E51FFF7B7
S3150800539C53FA002628602046FFF7C6FF304670BD34
S315080053AC4FF4C070FBF7C4FCF3E74FF42070F9E731
S315080053BC4FF44070F6E74FF46070F3E74FF4007063
S315080053CCF0E74FF48060EDE74FF44060EAE74FF4FE
S315080053DCC060E7E74FF4F060E4E74FF4B060E1E74C
S315080053EC4FF4D060DEE74FF41060DBE74FF4E06073
S315080053FCD8E74FF4A060D5E74FF41860D2E74FF41E
S3150800540C2860CFE74FF48070CCE74FF43060C9E7DB
S3150800541C4FF42060C6E74FF40860C3E70020212646
S3150800542CB8E72DE9F74F0D46002900F0B980084674
S3150800543CFFF7CCFB0446D0E90578FFF77AFF15F899
S3150800544C08EC35F8061C1EF0010F019000D031B996
S3150800545C0198FFF769FF012003B0BDE8F08FA66835
S3150800546CD4F810A035F8049CA6EBC1060AF1010382
S3150800547CA5F1080C4A1CA6602361B9F1000F00F0CF
S3150800548C85804FEAC9031846ACEBC90393F800B0FC
S3150800549C0EF0020E1BF0010F69D1BEF1000F69D197
S315080054ACB3F80290B3F806E0AEEB090EBEF1010FA5
S315080054BC6CD18A1C083E4A44C4F810A0A66035F87C
S315080054CC02ECBEF1000F65D0D4E900600CEBCE0AF5
S315080054DC06EB0009CA455DD21CF83EC056461CF0C0
